{
  "address": "0xb0Ac62B9E1C4Db2067a834d94A778711D85A1154",
  "abi": [
    {
      "inputs": [
        {
          "internalType": "address[]",
          "name": "admins_",
          "type": "address[]"
        },
        {
          "internalType": "uint256",
          "name": "_minimumQuorum",
          "type": "uint256"
        }
      ],
      "stateMutability": "nonpayable",
      "type": "constructor"
    },
    {
      "anonymous": false,
      "inputs": [
        {
          "indexed": true,
          "internalType": "address",
          "name": "admin",
          "type": "address"
        },
        {
          "indexed": true,
          "internalType": "bytes32",
          "name": "txHash",
          "type": "bytes32"
        },
        {
          "indexed": true,
          "internalType": "address",
          "name": "target",
          "type": "address"
        },
        {
          "indexed": false,
          "internalType": "uint256",
          "name": "value",
          "type": "uint256"
        },
        {
          "indexed": false,
          "internalType": "string",
          "name": "signature",
          "type": "string"
        },
        {
          "indexed": false,
          "internalType": "bytes",
          "name": "data",
          "type": "bytes"
        },
        {
          "indexed": false,
          "internalType": "uint256",
          "name": "eta",
          "type": "uint256"
        }
      ],
      "name": "CancelTransaction",
      "type": "event"
    },
    {
      "anonymous": false,
      "inputs": [
        {
          "indexed": true,
          "internalType": "address",
          "name": "admin",
          "type": "address"
        },
        {
          "indexed": true,
          "internalType": "bytes32",
          "name": "txHash",
          "type": "bytes32"
        },
        {
          "indexed": true,
          "internalType": "address",
          "name": "target",
          "type": "address"
        },
        {
          "indexed": false,
          "internalType": "uint256",
          "name": "value",
          "type": "uint256"
        },
        {
          "indexed": false,
          "internalType": "string",
          "name": "signature",
          "type": "string"
        },
        {
          "indexed": false,
          "internalType": "bytes",
          "name": "data",
          "type": "bytes"
        },
        {
          "indexed": false,
          "internalType": "uint256",
          "name": "eta",
          "type": "uint256"
        }
      ],
      "name": "ExecuteTransaction",
      "type": "event"
    },
    {
      "anonymous": false,
      "inputs": [
        {
          "indexed": true,
          "internalType": "address",
          "name": "admin",
          "type": "address"
        },
        {
          "indexed": true,
          "internalType": "bytes32",
          "name": "txHash",
          "type": "bytes32"
        },
        {
          "indexed": true,
          "internalType": "address",
          "name": "target",
          "type": "address"
        },
        {
          "indexed": false,
          "internalType": "uint256",
          "name": "value",
          "type": "uint256"
        },
        {
          "indexed": false,
          "internalType": "string",
          "name": "signature",
          "type": "string"
        },
        {
          "indexed": false,
          "internalType": "bytes",
          "name": "data",
          "type": "bytes"
        },
        {
          "indexed": false,
          "internalType": "uint256",
          "name": "eta",
          "type": "uint256"
        }
      ],
      "name": "QueueTransaction",
      "type": "event"
    },
    {
      "inputs": [],
      "name": "GRACE_PERIOD",
      "outputs": [
        {
          "internalType": "uint256",
          "name": "",
          "type": "uint256"
        }
      ],
      "stateMutability": "view",
      "type": "function"
    },
    {
      "inputs": [],
      "name": "MAXIMUM_DELAY",
      "outputs": [
        {
          "internalType": "uint256",
          "name": "",
          "type": "uint256"
        }
      ],
      "stateMutability": "view",
      "type": "function"
    },
    {
      "inputs": [],
      "name": "MINIMUM_DELAY",
      "outputs": [
        {
          "internalType": "uint256",
          "name": "",
          "type": "uint256"
        }
      ],
      "stateMutability": "view",
      "type": "function"
    },
    {
      "inputs": [
        {
          "internalType": "uint256",
          "name": "i",
          "type": "uint256"
        }
      ],
      "name": "adminAt",
      "outputs": [
        {
          "internalType": "address",
          "name": "",
          "type": "address"
        }
      ],
      "stateMutability": "view",
      "type": "function"
    },
    {
      "inputs": [],
      "name": "adminLength",
      "outputs": [
        {
          "internalType": "uint256",
          "name": "",
          "type": "uint256"
        }
      ],
      "stateMutability": "view",
      "type": "function"
    },
    {
      "inputs": [
        {
          "internalType": "address",
          "name": "target",
          "type": "address"
        },
        {
          "internalType": "uint256",
          "name": "value",
          "type": "uint256"
        },
        {
          "internalType": "string",
          "name": "signature",
          "type": "string"
        },
        {
          "internalType": "bytes",
          "name": "data",
          "type": "bytes"
        },
        {
          "internalType": "uint256",
          "name": "eta",
          "type": "uint256"
        }
      ],
      "name": "cancelTransaction",
      "outputs": [],
      "stateMutability": "nonpayable",
      "type": "function"
    },
    {
      "inputs": [],
      "name": "delay",
      "outputs": [
        {
          "internalType": "uint256",
          "name": "",
          "type": "uint256"
        }
      ],
      "stateMutability": "view",
      "type": "function"
    },
    {
      "inputs": [
        {
          "internalType": "bytes32",
          "name": "txHash",
          "type": "bytes32"
        },
        {
          "internalType": "uint256",
          "name": "i",
          "type": "uint256"
        }
      ],
      "name": "endorcerAt",
      "outputs": [
        {
          "internalType": "address",
          "name": "",
          "type": "address"
        }
      ],
      "stateMutability": "view",
      "type": "function"
    },
    {
      "inputs": [
        {
          "internalType": "address",
          "name": "target",
          "type": "address"
        },
        {
          "internalType": "uint256",
          "name": "value",
          "type": "uint256"
        },
        {
          "internalType": "string",
          "name": "signature",
          "type": "string"
        },
        {
          "internalType": "bytes",
          "name": "data",
          "type": "bytes"
        },
        {
          "internalType": "uint256",
          "name": "eta",
          "type": "uint256"
        }
      ],
      "name": "executeTransaction",
      "outputs": [
        {
          "internalType": "bytes",
          "name": "",
          "type": "bytes"
        }
      ],
      "stateMutability": "payable",
      "type": "function"
    },
    {
      "inputs": [
        {
          "internalType": "bytes32",
          "name": "txHash",
          "type": "bytes32"
        },
        {
          "internalType": "address",
          "name": "admin",
          "type": "address"
        }
      ],
      "name": "hasEndorced",
      "outputs": [
        {
          "internalType": "bool",
          "name": "",
          "type": "bool"
        }
      ],
      "stateMutability": "view",
      "type": "function"
    },
    {
      "inputs": [],
      "name": "minimumQuorum",
      "outputs": [
        {
          "internalType": "uint256",
          "name": "",
          "type": "uint256"
        }
      ],
      "stateMutability": "view",
      "type": "function"
    },
    {
      "inputs": [
        {
          "internalType": "address",
          "name": "target",
          "type": "address"
        },
        {
          "internalType": "uint256",
          "name": "value",
          "type": "uint256"
        },
        {
          "internalType": "string",
          "name": "signature",
          "type": "string"
        },
        {
          "internalType": "bytes",
          "name": "data",
          "type": "bytes"
        },
        {
          "internalType": "uint256",
          "name": "eta",
          "type": "uint256"
        }
      ],
      "name": "queueTransaction",
      "outputs": [
        {
          "internalType": "bytes32",
          "name": "",
          "type": "bytes32"
        }
      ],
      "stateMutability": "nonpayable",
      "type": "function"
    },
    {
      "inputs": [
        {
          "internalType": "bytes32",
          "name": "",
          "type": "bytes32"
        }
      ],
      "name": "queuedTransactionEndorcementCounts",
      "outputs": [
        {
          "internalType": "uint256",
          "name": "",
          "type": "uint256"
        }
      ],
      "stateMutability": "view",
      "type": "function"
    },
    {
      "inputs": [
        {
          "internalType": "bytes32",
          "name": "",
          "type": "bytes32"
        }
      ],
      "name": "queuedTransactions",
      "outputs": [
        {
          "internalType": "bool",
          "name": "",
          "type": "bool"
        }
      ],
      "stateMutability": "view",
      "type": "function"
    },
    {
      "stateMutability": "payable",
      "type": "receive"
    }
  ],
  "transactionHash": "0x4b24a445a6279060bae0705703708afca2efbb172b7ddfdc911cbc0a882aa209",
  "args": [
    [
      "0x8EBC8af7a3E5b86426AE0C37a3372f07Af57eE2A",
      "0xE1A18d5A17692a04E988Bf44ccC7b446aC669140",
      "0x8064a0DE02E40dB0023eD40E194DAEa6533a77C6"
    ],
    2
  ],
  "solcInputHash": "faeebb48911aaf5bb65570aa6ca81d1e",
  "bytecode": "0x60a06040526154606002553480156200001757600080fd5b506040516200172b3803806200172b8339810160408190526200003a9162000202565b60008251116200007d5760405162461bcd60e51b815260206004820152600960248201526821302061646d696e7360b81b60448201526064015b60405180910390fd5b60008111620000bb5760405162461bcd60e51b815260206004820152600960248201526821302071756f72756d60b81b604482015260640162000074565b80825110156200010e5760405162461bcd60e51b815260206004820152601360248201527f21756e726561636861626c652071756f72756d00000000000000000000000000604482015260640162000074565b60005b82518110156200016857620001528382815181106200013457620001346200030d565b602002602001015160006200017360201b62000cee1790919060201c565b50806200015f81620002e3565b91505062000111565b506080525062000339565b60006200018a836001600160a01b03841662000193565b90505b92915050565b6000818152600183016020526040812054620001dc575081546001818101845560008481526020808220909301849055845484825282860190935260409020919091556200018d565b5060006200018d565b80516001600160a01b0381168114620001fd57600080fd5b919050565b600080604083850312156200021657600080fd5b82516001600160401b03808211156200022e57600080fd5b818501915085601f8301126200024357600080fd5b81516020828211156200025a576200025a62000323565b8160051b604051601f19603f8301168101818110868211171562000282576200028262000323565b604052838152828101945085830182870184018b1015620002a257600080fd5b600096505b84871015620002d057620002bb81620001e5565b865260019690960195948301948301620002a7565b5097909101519698969750505050505050565b60006000198214156200030657634e487b7160e01b600052601160045260246000fd5b5060010190565b634e487b7160e01b600052603260045260246000fd5b634e487b7160e01b600052604160045260246000fd5b6080516113cf6200035c6000396000818161027c01526103a801526113cf6000f3fe6080604052600436106100e15760003560e01c80636984c1d31161007f5780638160f0b5116100595780638160f0b51461026a578063b1b43ae51461029e578063c1a287e2146102b4578063f2b06537146102cb57600080fd5b80636984c1d3146102105780636a42b8f81461023d5780637d645fab1461025357600080fd5b80634aad1fce116100bb5780634aad1fce146101895780634bb14536146101a9578063591fcdfe146101d95780635982f610146101fb57600080fd5b80630825f38f146100ed5780632a1ad03f146101165780633a66f9011461015b57600080fd5b366100e857005b600080fd5b6101006100fb366004610fa0565b6102fb565b60405161010d91906111c0565b60405180910390f35b34801561012257600080fd5b50610136610131366004611051565b6107d3565b60405173ffffffffffffffffffffffffffffffffffffffff909116815260200161010d565b34801561016757600080fd5b5061017b610176366004610fa0565b6107e5565b60405190815260200161010d565b34801561019557600080fd5b506101366101a4366004611096565b610a9e565b3480156101b557600080fd5b506101c96101c436600461106a565b610abd565b604051901515815260200161010d565b3480156101e557600080fd5b506101f96101f4366004610fa0565b610ad5565b005b34801561020757600080fd5b5061017b610cdd565b34801561021c57600080fd5b5061017b61022b366004611051565b60056020526000908152604090205481565b34801561024957600080fd5b5061017b60025481565b34801561025f57600080fd5b5061017b62278d0081565b34801561027657600080fd5b5061017b7f000000000000000000000000000000000000000000000000000000000000000081565b3480156102aa57600080fd5b5061017b611c2081565b3480156102c057600080fd5b5061017b6212750081565b3480156102d757600080fd5b506101c96102e6366004611051565b60036020526000908152604090205460ff1681565b6060610308600033610d10565b610373576040517f08c379a000000000000000000000000000000000000000000000000000000000815260206004820152600660248201527f2161646d696e000000000000000000000000000000000000000000000000000060448201526064015b60405180910390fd5b6000868686868660405160200161038e959493929190611166565b6040516020818303038152906040528051906020012090507f000000000000000000000000000000000000000000000000000000000000000060056000838152602001908152602001600020541015610443576040517f08c379a000000000000000000000000000000000000000000000000000000000815260206004820152601360248201527f2171756f72756d206e6f74207265616368656400000000000000000000000000604482015260640161036a565b824210156104f9576040517f08c379a000000000000000000000000000000000000000000000000000000000815260206004820152604560248201527f54696d656c6f636b3a3a657865637574655472616e73616374696f6e3a20547260448201527f616e73616374696f6e206861736e2774207375727061737365642074696d652060648201527f6c6f636b2e000000000000000000000000000000000000000000000000000000608482015260a40161036a565b6105066212750084611210565b421115610595576040517f08c379a000000000000000000000000000000000000000000000000000000000815260206004820152603360248201527f54696d656c6f636b3a3a657865637574655472616e73616374696f6e3a20547260448201527f616e73616374696f6e206973207374616c652e00000000000000000000000000606482015260840161036a565b600081815260036020908152604080832080547fffffffffffffffffffffffffffffffffffffffffffffffffffffffffffffff00169055600590915281208190555b6105e16000610d3f565b81101561061d5761060a6105f6600083610d49565b600084815260046020526040902090610d55565b5080610615816112a4565b9150506105d7565b50606085516000141561063157508361065d565b85805190602001208560405160200161064b929190611102565b60405160208183030381529060405290505b6000808973ffffffffffffffffffffffffffffffffffffffff168984604051610686919061114a565b60006040518083038185875af1925050503d80600081146106c3576040519150601f19603f3d011682016040523d82523d6000602084013e6106c8565b606091505b50915091508161075a576040517f08c379a000000000000000000000000000000000000000000000000000000000815260206004820152603d60248201527f54696d656c6f636b3a3a657865637574655472616e73616374696f6e3a20547260448201527f616e73616374696f6e20657865637574696f6e2072657665727465642e000000606482015260840161036a565b8973ffffffffffffffffffffffffffffffffffffffff16843373ffffffffffffffffffffffffffffffffffffffff167f116be8c9cb80cb116e9ce3e0e25cf883382d5d1dc1fd9e1e382642c37815e8e68c8c8c8c6040516107be94939291906111d3565b60405180910390a49998505050505050505050565b60006107df8183610d49565b92915050565b60006107f18133610d10565b610857576040517f08c379a000000000000000000000000000000000000000000000000000000000815260206004820152600660248201527f2161646d696e0000000000000000000000000000000000000000000000000000604482015260640161036a565b6002546108649042611210565b821015610919576040517f08c379a000000000000000000000000000000000000000000000000000000000815260206004820152604960248201527f54696d656c6f636b3a3a71756575655472616e73616374696f6e3a204573746960448201527f6d6174656420657865637574696f6e20626c6f636b206d75737420736174697360648201527f66792064656c61792e0000000000000000000000000000000000000000000000608482015260a40161036a565b60008686868686604051602001610934959493929190611166565b6040516020818303038152906040528051906020012090506109568133610abd565b156109bd576040517f08c379a000000000000000000000000000000000000000000000000000000000815260206004820152601160248201527f21616c726561647920656e646f72636564000000000000000000000000000000604482015260640161036a565b600081815260036020908152604080832080547fffffffffffffffffffffffffffffffffffffffffffffffffffffffffffffff0016600117905560049091529020610a089033610cee565b506000818152600560205260408120805491610a23836112a4565b91905055508673ffffffffffffffffffffffffffffffffffffffff16813373ffffffffffffffffffffffffffffffffffffffff167feccb3bb80d68248ccd135b8536cbbc6f46dde77b6c6a60ea13d80ae2c68913cc89898989604051610a8c94939291906111d3565b60405180910390a49695505050505050565b6000828152600460205260408120610ab69083610d49565b9392505050565b6000828152600460205260408120610ab69083610d10565b610ae0600033610d10565b610b46576040517f08c379a000000000000000000000000000000000000000000000000000000000815260206004820152600660248201527f2161646d696e0000000000000000000000000000000000000000000000000000604482015260640161036a565b60008585858585604051602001610b61959493929190611166565b604051602081830303815290604052805190602001209050610b838133610abd565b610be9576040517f08c379a000000000000000000000000000000000000000000000000000000000815260206004820152600d60248201527f216e6f7420656e646f7263656400000000000000000000000000000000000000604482015260640161036a565b6000818152600460205260409020610c019033610d55565b506000818152600560205260408120805491610c1c8361126f565b9091555050600081815260056020526040902054610c6957600081815260036020526040902080547fffffffffffffffffffffffffffffffffffffffffffffffffffffffffffffff001690555b8573ffffffffffffffffffffffffffffffffffffffff16813373ffffffffffffffffffffffffffffffffffffffff167f885fa51227860163a860f053df8cdce6edd4d540e455d620ba1a2bdcdb5211f388888888604051610ccd94939291906111d3565b60405180910390a4505050505050565b6000610ce96000610d3f565b905090565b6000610ab68373ffffffffffffffffffffffffffffffffffffffff8416610d77565b73ffffffffffffffffffffffffffffffffffffffff811660009081526001830160205260408120541515610ab6565b60006107df825490565b6000610ab68383610dc6565b6000610ab68373ffffffffffffffffffffffffffffffffffffffff8416610df0565b6000818152600183016020526040812054610dbe575081546001818101845560008481526020808220909301849055845484825282860190935260409020919091556107df565b5060006107df565b6000826000018281548110610ddd57610ddd61133b565b9060005260206000200154905092915050565b60008181526001830160205260408120548015610ed9576000610e14600183611228565b8554909150600090610e2890600190611228565b9050818114610e8d576000866000018281548110610e4857610e4861133b565b9060005260206000200154905080876000018481548110610e6b57610e6b61133b565b6000918252602080832090910192909255918252600188019052604090208390555b8554869080610e9e57610e9e61130c565b6001900381819060005260206000200160009055905585600101600086815260200190815260200160002060009055600193505050506107df565b60009150506107df565b600067ffffffffffffffff80841115610efe57610efe61136a565b604051601f85017fffffffffffffffffffffffffffffffffffffffffffffffffffffffffffffffe0908116603f01168101908282118183101715610f4457610f4461136a565b81604052809350858152868686011115610f5d57600080fd5b858560208301376000602087830101525050509392505050565b803573ffffffffffffffffffffffffffffffffffffffff81168114610f9b57600080fd5b919050565b600080600080600060a08688031215610fb857600080fd5b610fc186610f77565b945060208601359350604086013567ffffffffffffffff80821115610fe557600080fd5b818801915088601f830112610ff957600080fd5b61100889833560208501610ee3565b9450606088013591508082111561101e57600080fd5b508601601f8101881361103057600080fd5b61103f88823560208401610ee3565b95989497509295608001359392505050565b60006020828403121561106357600080fd5b5035919050565b6000806040838503121561107d57600080fd5b8235915061108d60208401610f77565b90509250929050565b600080604083850312156110a957600080fd5b50508035926020909101359150565b600081518084526110d081602086016020860161123f565b601f017fffffffffffffffffffffffffffffffffffffffffffffffffffffffffffffffe0169290920160200192915050565b7fffffffff00000000000000000000000000000000000000000000000000000000831681526000825161113c81600485016020870161123f565b919091016004019392505050565b6000825161115c81846020870161123f565b9190910192915050565b73ffffffffffffffffffffffffffffffffffffffff8616815284602082015260a06040820152600061119b60a08301866110b8565b82810360608401526111ad81866110b8565b9150508260808301529695505050505050565b602081526000610ab660208301846110b8565b8481526080602082015260006111ec60808301866110b8565b82810360408401526111fe81866110b8565b91505082606083015295945050505050565b60008219821115611223576112236112dd565b500190565b60008282101561123a5761123a6112dd565b500390565b60005b8381101561125a578181015183820152602001611242565b83811115611269576000848401525b50505050565b60008161127e5761127e6112dd565b507fffffffffffffffffffffffffffffffffffffffffffffffffffffffffffffffff0190565b60007fffffffffffffffffffffffffffffffffffffffffffffffffffffffffffffffff8214156112d6576112d66112dd565b5060010190565b7f4e487b7100000000000000000000000000000000000000000000000000000000600052601160045260246000fd5b7f4e487b7100000000000000000000000000000000000000000000000000000000600052603160045260246000fd5b7f4e487b7100000000000000000000000000000000000000000000000000000000600052603260045260246000fd5b7f4e487b7100000000000000000000000000000000000000000000000000000000600052604160045260246000fdfea26469706673582212208dcea0576dd6c97938964a5d27f6c39ad9e280ea2a1e34670d7895f7338b95c064736f6c63430008060033",
  "devdoc": {
    "kind": "dev",
    "methods": {},
    "stateVariables": {
      "admins": {
        "details": "Admins are immutable and injected during the contract construction. Expected to be set to 3 hardware wallets owned by separate entities."
      },
      "minimumQuorum": {
        "details": "The minimum numbers of admins that have to sign a transaction. Expected to be set to 2 out of 3."
      },
      "queuedTransactions": {
        "details": "UI function that shows whether "
      }
    },
    "version": 1
  },
  "userdoc": {
    "kind": "user",
    "methods": {},
    "notice": "The multisig timelock requires 2/3 sep",
    "version": 1
  },
  "storageLayout": {
    "storage": [
      {
        "astId": 667,
        "contract": "contracts/MultisigTimelock.sol:MultisigTimelock",
        "label": "admins",
        "offset": 0,
        "slot": "0",
        "type": "t_struct(AddressSet)311_storage"
      },
      {
        "astId": 673,
        "contract": "contracts/MultisigTimelock.sol:MultisigTimelock",
        "label": "delay",
        "offset": 0,
        "slot": "2",
        "type": "t_uint256"
      },
      {
        "astId": 678,
        "contract": "contracts/MultisigTimelock.sol:MultisigTimelock",
        "label": "queuedTransactions",
        "offset": 0,
        "slot": "3",
        "type": "t_mapping(t_bytes32,t_bool)"
      },
      {
        "astId": 683,
        "contract": "contracts/MultisigTimelock.sol:MultisigTimelock",
        "label": "queuedTransactionsEndorcements",
        "offset": 0,
        "slot": "4",
        "type": "t_mapping(t_bytes32,t_struct(AddressSet)311_storage)"
      },
      {
        "astId": 687,
        "contract": "contracts/MultisigTimelock.sol:MultisigTimelock",
        "label": "queuedTransactionEndorcementCounts",
        "offset": 0,
        "slot": "5",
        "type": "t_mapping(t_bytes32,t_uint256)"
      }
    ],
    "types": {
      "t_array(t_bytes32)dyn_storage": {
        "base": "t_bytes32",
        "encoding": "dynamic_array",
        "label": "bytes32[]",
        "numberOfBytes": "32"
      },
      "t_bool": {
        "encoding": "inplace",
        "label": "bool",
        "numberOfBytes": "1"
      },
      "t_bytes32": {
        "encoding": "inplace",
        "label": "bytes32",
        "numberOfBytes": "32"
      },
      "t_mapping(t_bytes32,t_bool)": {
        "encoding": "mapping",
        "key": "t_bytes32",
        "label": "mapping(bytes32 => bool)",
        "numberOfBytes": "32",
        "value": "t_bool"
      },
      "t_mapping(t_bytes32,t_struct(AddressSet)311_storage)": {
        "encoding": "mapping",
        "key": "t_bytes32",
        "label": "mapping(bytes32 => struct EnumerableSet.AddressSet)",
        "numberOfBytes": "32",
        "value": "t_struct(AddressSet)311_storage"
      },
      "t_mapping(t_bytes32,t_uint256)": {
        "encoding": "mapping",
        "key": "t_bytes32",
        "label": "mapping(bytes32 => uint256)",
        "numberOfBytes": "32",
        "value": "t_uint256"
      },
      "t_struct(AddressSet)311_storage": {
        "encoding": "inplace",
        "label": "struct EnumerableSet.AddressSet",
        "members": [
          {
            "astId": 310,
            "contract": "contracts/MultisigTimelock.sol:MultisigTimelock",
            "label": "_inner",
            "offset": 0,
            "slot": "0",
            "type": "t_struct(Set)10_storage"
          }
        ],
        "numberOfBytes": "64"
      },
      "t_struct(Set)10_storage": {
        "encoding": "inplace",
        "label": "struct EnumerableSet.Set",
        "members": [
          {
            "astId": 5,
            "contract": "contracts/MultisigTimelock.sol:MultisigTimelock",
            "label": "_values",
            "offset": 0,
            "slot": "0",
            "type": "t_array(t_bytes32)dyn_storage"
          },
          {
            "astId": 9,
            "contract": "contracts/MultisigTimelock.sol:MultisigTimelock",
            "label": "_indexes",
            "offset": 0,
            "slot": "1",
            "type": "t_mapping(t_bytes32,t_uint256)"
          }
        ],
        "numberOfBytes": "64"
      },
      "t_uint256": {
        "encoding": "inplace",
        "label": "uint256",
        "numberOfBytes": "32"
      }
    }
  }
}