{
  "_format": "hh-sol-artifact-1",
  "contractName": "MultisigTimelock",
  "sourceName": "contracts/MultisigTimelock.sol",
  "abi": [
    {
      "inputs": [],
      "stateMutability": "nonpayable",
      "type": "constructor"
    },
    {
      "anonymous": false,
      "inputs": [
        {
          "indexed": true,
          "internalType": "address",
          "name": "admin",
          "type": "address"
        },
        {
          "indexed": true,
          "internalType": "bytes32",
          "name": "txHash",
          "type": "bytes32"
        },
        {
          "indexed": true,
          "internalType": "address",
          "name": "target",
          "type": "address"
        },
        {
          "indexed": false,
          "internalType": "uint256",
          "name": "value",
          "type": "uint256"
        },
        {
          "indexed": false,
          "internalType": "string",
          "name": "signature",
          "type": "string"
        },
        {
          "indexed": false,
          "internalType": "bytes",
          "name": "data",
          "type": "bytes"
        },
        {
          "indexed": false,
          "internalType": "uint256",
          "name": "eta",
          "type": "uint256"
        }
      ],
      "name": "CancelTransaction",
      "type": "event"
    },
    {
      "anonymous": false,
      "inputs": [
        {
          "indexed": true,
          "internalType": "address",
          "name": "admin",
          "type": "address"
        },
        {
          "indexed": true,
          "internalType": "bytes32",
          "name": "txHash",
          "type": "bytes32"
        },
        {
          "indexed": true,
          "internalType": "address",
          "name": "target",
          "type": "address"
        },
        {
          "indexed": false,
          "internalType": "uint256",
          "name": "value",
          "type": "uint256"
        },
        {
          "indexed": false,
          "internalType": "string",
          "name": "signature",
          "type": "string"
        },
        {
          "indexed": false,
          "internalType": "bytes",
          "name": "data",
          "type": "bytes"
        },
        {
          "indexed": false,
          "internalType": "uint256",
          "name": "eta",
          "type": "uint256"
        }
      ],
      "name": "ExecuteTransaction",
      "type": "event"
    },
    {
      "anonymous": false,
      "inputs": [
        {
          "indexed": true,
          "internalType": "uint256",
          "name": "newDelay",
          "type": "uint256"
        }
      ],
      "name": "NewDelay",
      "type": "event"
    },
    {
      "anonymous": false,
      "inputs": [
        {
          "indexed": true,
          "internalType": "address",
          "name": "admin",
          "type": "address"
        },
        {
          "indexed": true,
          "internalType": "bytes32",
          "name": "txHash",
          "type": "bytes32"
        },
        {
          "indexed": true,
          "internalType": "address",
          "name": "target",
          "type": "address"
        },
        {
          "indexed": false,
          "internalType": "uint256",
          "name": "value",
          "type": "uint256"
        },
        {
          "indexed": false,
          "internalType": "string",
          "name": "signature",
          "type": "string"
        },
        {
          "indexed": false,
          "internalType": "bytes",
          "name": "data",
          "type": "bytes"
        },
        {
          "indexed": false,
          "internalType": "uint256",
          "name": "eta",
          "type": "uint256"
        }
      ],
      "name": "QueueTransaction",
      "type": "event"
    },
    {
      "inputs": [],
      "name": "GRACE_PERIOD",
      "outputs": [
        {
          "internalType": "uint256",
          "name": "",
          "type": "uint256"
        }
      ],
      "stateMutability": "view",
      "type": "function"
    },
    {
      "inputs": [],
      "name": "MAXIMUM_DELAY",
      "outputs": [
        {
          "internalType": "uint256",
          "name": "",
          "type": "uint256"
        }
      ],
      "stateMutability": "view",
      "type": "function"
    },
    {
      "inputs": [],
      "name": "MINIMUM_DELAY",
      "outputs": [
        {
          "internalType": "uint256",
          "name": "",
          "type": "uint256"
        }
      ],
      "stateMutability": "view",
      "type": "function"
    },
    {
      "inputs": [
        {
          "internalType": "uint256",
          "name": "i",
          "type": "uint256"
        }
      ],
      "name": "adminAt",
      "outputs": [
        {
          "internalType": "address",
          "name": "",
          "type": "address"
        }
      ],
      "stateMutability": "view",
      "type": "function"
    },
    {
      "inputs": [],
      "name": "adminLength",
      "outputs": [
        {
          "internalType": "uint256",
          "name": "",
          "type": "uint256"
        }
      ],
      "stateMutability": "view",
      "type": "function"
    },
    {
      "inputs": [
        {
          "internalType": "address",
          "name": "target",
          "type": "address"
        },
        {
          "internalType": "uint256",
          "name": "value",
          "type": "uint256"
        },
        {
          "internalType": "string",
          "name": "signature",
          "type": "string"
        },
        {
          "internalType": "bytes",
          "name": "data",
          "type": "bytes"
        },
        {
          "internalType": "uint256",
          "name": "eta",
          "type": "uint256"
        }
      ],
      "name": "cancelTransaction",
      "outputs": [],
      "stateMutability": "nonpayable",
      "type": "function"
    },
    {
      "inputs": [],
      "name": "delay",
      "outputs": [
        {
          "internalType": "uint256",
          "name": "",
          "type": "uint256"
        }
      ],
      "stateMutability": "view",
      "type": "function"
    },
    {
      "inputs": [
        {
          "internalType": "bytes32",
          "name": "txHash",
          "type": "bytes32"
        },
        {
          "internalType": "uint256",
          "name": "i",
          "type": "uint256"
        }
      ],
      "name": "endorcerAt",
      "outputs": [
        {
          "internalType": "address",
          "name": "",
          "type": "address"
        }
      ],
      "stateMutability": "view",
      "type": "function"
    },
    {
      "inputs": [
        {
          "internalType": "address",
          "name": "target",
          "type": "address"
        },
        {
          "internalType": "uint256",
          "name": "value",
          "type": "uint256"
        },
        {
          "internalType": "string",
          "name": "signature",
          "type": "string"
        },
        {
          "internalType": "bytes",
          "name": "data",
          "type": "bytes"
        },
        {
          "internalType": "uint256",
          "name": "eta",
          "type": "uint256"
        }
      ],
      "name": "executeTransaction",
      "outputs": [
        {
          "internalType": "bytes",
          "name": "",
          "type": "bytes"
        }
      ],
      "stateMutability": "payable",
      "type": "function"
    },
    {
      "inputs": [
        {
          "internalType": "bytes32",
          "name": "txHash",
          "type": "bytes32"
        },
        {
          "internalType": "address",
          "name": "admin",
          "type": "address"
        }
      ],
      "name": "hasEndorced",
      "outputs": [
        {
          "internalType": "bool",
          "name": "",
          "type": "bool"
        }
      ],
      "stateMutability": "view",
      "type": "function"
    },
    {
      "inputs": [
        {
          "internalType": "address[]",
          "name": "_admins",
          "type": "address[]"
        },
        {
          "internalType": "uint256",
          "name": "_minimumQuorum",
          "type": "uint256"
        }
      ],
      "name": "initialize",
      "outputs": [],
      "stateMutability": "nonpayable",
      "type": "function"
    },
    {
      "inputs": [],
      "name": "minimumQuorum",
      "outputs": [
        {
          "internalType": "uint256",
          "name": "",
          "type": "uint256"
        }
      ],
      "stateMutability": "view",
      "type": "function"
    },
    {
      "inputs": [
        {
          "internalType": "address",
          "name": "target",
          "type": "address"
        },
        {
          "internalType": "uint256",
          "name": "value",
          "type": "uint256"
        },
        {
          "internalType": "string",
          "name": "signature",
          "type": "string"
        },
        {
          "internalType": "bytes",
          "name": "data",
          "type": "bytes"
        },
        {
          "internalType": "uint256",
          "name": "eta",
          "type": "uint256"
        }
      ],
      "name": "queueTransaction",
      "outputs": [
        {
          "internalType": "bytes32",
          "name": "",
          "type": "bytes32"
        }
      ],
      "stateMutability": "nonpayable",
      "type": "function"
    },
    {
      "inputs": [
        {
          "internalType": "bytes32",
          "name": "",
          "type": "bytes32"
        }
      ],
      "name": "queuedTransactionEndorcementCounts",
      "outputs": [
        {
          "internalType": "uint256",
          "name": "",
          "type": "uint256"
        }
      ],
      "stateMutability": "view",
      "type": "function"
    },
    {
      "inputs": [
        {
          "internalType": "bytes32",
          "name": "",
          "type": "bytes32"
        }
      ],
      "name": "queuedTransactions",
      "outputs": [
        {
          "internalType": "bool",
          "name": "",
          "type": "bool"
        }
      ],
      "stateMutability": "view",
      "type": "function"
    },
    {
      "inputs": [
        {
          "internalType": "uint256",
          "name": "delay_",
          "type": "uint256"
        }
      ],
      "name": "setDelay",
      "outputs": [],
      "stateMutability": "nonpayable",
      "type": "function"
    },
    {
      "stateMutability": "payable",
      "type": "receive"
    }
  ],
  "bytecode": "0x608060405261546060035534801561001657600080fd5b50600780546001600160a01b03191633179055611458806100386000396000f3fe6080604052600436106100f75760003560e01c80636984c1d31161008a578063b1b43ae511610059578063b1b43ae5146102a9578063c1a287e2146102bf578063e177246e146102d6578063f2b06537146102f657600080fd5b80636984c1d3146102395780636a42b8f8146102665780637d645fab1461027c5780638160f0b51461029357600080fd5b80634bb14536116100c65780634bb14536146101b2578063591fcdfe146101e25780635982f6101461020457806360b5bb3f1461021957600080fd5b80630825f38f146101035780632a1ad03f1461012c5780633a66f901146101645780634aad1fce1461019257600080fd5b366100fe57005b600080fd5b610116610111366004611001565b610326565b6040516101239190611298565b60405180910390f35b34801561013857600080fd5b5061014c61014736600461116c565b6106c1565b6040516001600160a01b039091168152602001610123565b34801561017057600080fd5b5061018461017f366004611001565b6106d3565b604051908152602001610123565b34801561019e57600080fd5b5061014c6101ad3660046111b1565b6108b6565b3480156101be57600080fd5b506101d26101cd366004611185565b6108d5565b6040519015158152602001610123565b3480156101ee57600080fd5b506102026101fd366004611001565b6108ed565b005b34801561021057600080fd5b50610184610a49565b34801561022557600080fd5b506102026102343660046110b2565b610a5a565b34801561024557600080fd5b5061018461025436600461116c565b60066020526000908152604090205481565b34801561027257600080fd5b5061018460035481565b34801561028857600080fd5b5061018462278d0081565b34801561029f57600080fd5b5061018460025481565b3480156102b557600080fd5b50610184611c2081565b3480156102cb57600080fd5b506101846212750081565b3480156102e257600080fd5b506102026102f136600461116c565b610c3b565b34801561030257600080fd5b506101d261031136600461116c565b60046020526000908152604090205460ff1681565b6060610333600033610dbf565b6103585760405162461bcd60e51b815260040161034f906112ab565b60405180910390fd5b6000868686868660405160200161037395949392919061124c565b604051602081830303815290604052805190602001209050600254600660008381526020019081526020016000205410156103e65760405162461bcd60e51b8152602060048201526013602482015272085c5d5bdc9d5b481b9bdd081c995858da1959606a1b604482015260640161034f565b8242101561046a5760405162461bcd60e51b815260206004820152604560248201527f54696d656c6f636b3a3a657865637574655472616e73616374696f6e3a20547260448201527f616e73616374696f6e206861736e2774207375727061737365642074696d65206064820152643637b1b59760d91b608482015260a40161034f565b6104776212750084611339565b4211156104e25760405162461bcd60e51b815260206004820152603360248201527f54696d656c6f636b3a3a657865637574655472616e73616374696f6e3a20547260448201527230b739b0b1ba34b7b71034b99039ba30b6329760691b606482015260840161034f565b6000818152600460209081526040808320805460ff19169055600690915281208190555b6105106000610de1565b81101561054c57610539610525600083610deb565b600084815260056020526040902090610df7565b5080610544816113af565b915050610506565b50606085516000141561056057508361058c565b85805190602001208560405160200161057a9291906111ff565b60405160208183030381529060405290505b600080896001600160a01b031689846040516105a89190611230565b60006040518083038185875af1925050503d80600081146105e5576040519150601f19603f3d011682016040523d82523d6000602084013e6105ea565b606091505b5091509150816106625760405162461bcd60e51b815260206004820152603d60248201527f54696d656c6f636b3a3a657865637574655472616e73616374696f6e3a20547260448201527f616e73616374696f6e20657865637574696f6e2072657665727465642e000000606482015260840161034f565b896001600160a01b031684336001600160a01b03167f116be8c9cb80cb116e9ce3e0e25cf883382d5d1dc1fd9e1e382642c37815e8e68c8c8c8c6040516106ac94939291906112cb565b60405180910390a49998505050505050505050565b60006106cd8183610deb565b92915050565b60006106df8133610dbf565b6106fb5760405162461bcd60e51b815260040161034f906112ab565b6003546107089042611339565b82101561078f5760405162461bcd60e51b815260206004820152604960248201527f54696d656c6f636b3a3a71756575655472616e73616374696f6e3a204573746960448201527f6d6174656420657865637574696f6e20626c6f636b206d757374207361746973606482015268333c903232b630bc9760b91b608482015260a40161034f565b600086868686866040516020016107aa95949392919061124c565b6040516020818303038152906040528051906020012090506107cc81336108d5565b1561080d5760405162461bcd60e51b815260206004820152601160248201527008585b1c9958591e48195b991bdc98d959607a1b604482015260640161034f565b6000818152600460209081526040808320805460ff191660011790556005909152902061083a9033610e0c565b506000818152600660205260408120805491610855836113af565b9190505550866001600160a01b031681336001600160a01b03167feccb3bb80d68248ccd135b8536cbbc6f46dde77b6c6a60ea13d80ae2c68913cc898989896040516108a494939291906112cb565b60405180910390a49695505050505050565b60008281526005602052604081206108ce9083610deb565b9392505050565b60008281526005602052604081206108ce9083610dbf565b6108f8600033610dbf565b6109145760405162461bcd60e51b815260040161034f906112ab565b6000858585858560405160200161092f95949392919061124c565b60405160208183030381529060405280519060200120905061095181336108d5565b61098d5760405162461bcd60e51b815260206004820152600d60248201526c085b9bdd08195b991bdc98d959609a1b604482015260640161034f565b60008181526005602052604090206109a59033610df7565b5060008181526006602052604081208054916109c083611398565b90915550506000818152600660205260409020546109ef576000818152600460205260409020805460ff191690555b856001600160a01b031681336001600160a01b03167f885fa51227860163a860f053df8cdce6edd4d540e455d620ba1a2bdcdb5211f388888888604051610a3994939291906112cb565b60405180910390a4505050505050565b6000610a556000610de1565b905090565b6007546001600160a01b03163314610aa35760405162461bcd60e51b815260206004820152600c60248201526b10b4b734ba34b0b634bd32b960a11b604482015260640161034f565b610aad6000610de1565b15610ae95760405162461bcd60e51b815260206004820152600c60248201526b085a5b9a5d1a585b1a5e995960a21b604482015260640161034f565b60025415610b285760405162461bcd60e51b815260206004820152600c60248201526b085a5b9a5d1a585b1a5e995960a21b604482015260640161034f565b6000825111610b655760405162461bcd60e51b815260206004820152600960248201526821302061646d696e7360b81b604482015260640161034f565b60008111610ba15760405162461bcd60e51b815260206004820152600960248201526821302071756f72756d60b81b604482015260640161034f565b8082511015610be85760405162461bcd60e51b815260206004820152601360248201527221756e726561636861626c652071756f72756d60681b604482015260640161034f565b60005b8251811015610c3457610c21838281518110610c0957610c096113f6565b60200260200101516000610e0c90919063ffffffff16565b5080610c2c816113af565b915050610beb565b5060025550565b333014610ca45760405162461bcd60e51b815260206004820152603160248201527f54696d656c6f636b3a3a73657444656c61793a2043616c6c206d75737420636f60448201527036b290333937b6902a34b6b2b637b1b59760791b606482015260840161034f565b611c20811015610d135760405162461bcd60e51b815260206004820152603460248201527f54696d656c6f636b3a3a73657444656c61793a2044656c6179206d75737420656044820152733c31b2b2b21036b4b734b6bab6903232b630bc9760611b606482015260840161034f565b62278d00811115610d8c5760405162461bcd60e51b815260206004820152603860248201527f54696d656c6f636b3a3a73657444656c61793a2044656c6179206d757374206e60448201527f6f7420657863656564206d6178696d756d2064656c61792e0000000000000000606482015260840161034f565b600381905560405181907f948b1f6a42ee138b7e34058ba85a37f716d55ff25ff05a763f15bed6a04c8d2c90600090a250565b6001600160a01b038116600090815260018301602052604081205415156108ce565b60006106cd825490565b60006108ce8383610e21565b60006108ce836001600160a01b038416610e4b565b60006108ce836001600160a01b038416610f3e565b6000826000018281548110610e3857610e386113f6565b9060005260206000200154905092915050565b60008181526001830160205260408120548015610f34576000610e6f600183611351565b8554909150600090610e8390600190611351565b9050818114610ee8576000866000018281548110610ea357610ea36113f6565b9060005260206000200154905080876000018481548110610ec657610ec66113f6565b6000918252602080832090910192909255918252600188019052604090208390555b8554869080610ef957610ef96113e0565b6001900381819060005260206000200160009055905585600101600086815260200190815260200160002060009055600193505050506106cd565b60009150506106cd565b6000818152600183016020526040812054610f85575081546001818101845560008481526020808220909301849055845484825282860190935260409020919091556106cd565b5060006106cd565b600067ffffffffffffffff831115610fa757610fa761140c565b610fba601f8401601f1916602001611308565b9050828152838383011115610fce57600080fd5b828260208301376000602084830101529392505050565b80356001600160a01b0381168114610ffc57600080fd5b919050565b600080600080600060a0868803121561101957600080fd5b61102286610fe5565b945060208601359350604086013567ffffffffffffffff8082111561104657600080fd5b818801915088601f83011261105a57600080fd5b61106989833560208501610f8d565b9450606088013591508082111561107f57600080fd5b508601601f8101881361109157600080fd5b6110a088823560208401610f8d565b95989497509295608001359392505050565b600080604083850312156110c557600080fd5b823567ffffffffffffffff808211156110dd57600080fd5b818501915085601f8301126110f157600080fd5b81356020828211156111055761110561140c565b8160051b9250611116818401611308565b8281528181019085830185870184018b101561113157600080fd5b600096505b8487101561115b5761114781610fe5565b835260019690960195918301918301611136565b509997909101359750505050505050565b60006020828403121561117e57600080fd5b5035919050565b6000806040838503121561119857600080fd5b823591506111a860208401610fe5565b90509250929050565b600080604083850312156111c457600080fd5b50508035926020909101359150565b600081518084526111eb816020860160208601611368565b601f01601f19169290920160200192915050565b6001600160e01b0319831681528151600090611222816004850160208701611368565b919091016004019392505050565b60008251611242818460208701611368565b9190910192915050565b60018060a01b038616815284602082015260a06040820152600061127360a08301866111d3565b828103606084015261128581866111d3565b9150508260808301529695505050505050565b6020815260006108ce60208301846111d3565b60208082526006908201526510b0b236b4b760d11b604082015260600190565b8481526080602082015260006112e460808301866111d3565b82810360408401526112f681866111d3565b91505082606083015295945050505050565b604051601f8201601f1916810167ffffffffffffffff811182821017156113315761133161140c565b604052919050565b6000821982111561134c5761134c6113ca565b500190565b600082821015611363576113636113ca565b500390565b60005b8381101561138357818101518382015260200161136b565b83811115611392576000848401525b50505050565b6000816113a7576113a76113ca565b506000190190565b60006000198214156113c3576113c36113ca565b5060010190565b634e487b7160e01b600052601160045260246000fd5b634e487b7160e01b600052603160045260246000fd5b634e487b7160e01b600052603260045260246000fd5b634e487b7160e01b600052604160045260246000fdfea264697066735822122077cf4313501b21b5b93f934329f268d6dededb08bfa848e1fdfef07789b7e01864736f6c63430008060033",
  "linkReferences": {},
  "deployedLinkReferences": {}
}